{
  "contractName": "DecentralBank",
  "abi": [
    {
      "constant": true,
      "inputs": [],
      "name": "name",
      "outputs": [
        {
          "name": "",
          "type": "string"
        }
      ],
      "payable": false,
      "stateMutability": "view",
      "type": "function"
    },
    {
      "constant": true,
      "inputs": [],
      "name": "rwd",
      "outputs": [
        {
          "name": "",
          "type": "address"
        }
      ],
      "payable": false,
      "stateMutability": "view",
      "type": "function"
    },
    {
      "constant": true,
      "inputs": [],
      "name": "tether",
      "outputs": [
        {
          "name": "",
          "type": "address"
        }
      ],
      "payable": false,
      "stateMutability": "view",
      "type": "function"
    },
    {
      "constant": true,
      "inputs": [],
      "name": "owner",
      "outputs": [
        {
          "name": "",
          "type": "address"
        }
      ],
      "payable": false,
      "stateMutability": "view",
      "type": "function"
    },
    {
      "inputs": [
        {
          "name": "_rwd",
          "type": "address"
        },
        {
          "name": "_tether",
          "type": "address"
        }
      ],
      "payable": false,
      "stateMutability": "nonpayable",
      "type": "constructor"
    }
  ],
  "bytecode": "0x60806040526040805190810160405280600e81526020017f446563656e7472616c2042616e6b0000000000000000000000000000000000008152506000908051906020019061004f929190610120565b5034801561005c57600080fd5b5060405160408061050c8339810180604052604081101561007c57600080fd5b81019080805190602001909291908051906020019092919050505081600360006101000a81548173ffffffffffffffffffffffffffffffffffffffff021916908373ffffffffffffffffffffffffffffffffffffffff16021790555080600260006101000a81548173ffffffffffffffffffffffffffffffffffffffff021916908373ffffffffffffffffffffffffffffffffffffffff16021790555050506101c5565b828054600181600116156101000203166002900490600052602060002090601f016020900481019282601f1061016157805160ff191683800117855561018f565b8280016001018555821561018f579182015b8281111561018e578251825591602001919060010190610173565b5b50905061019c91906101a0565b5090565b6101c291905b808211156101be5760008160009055506001016101a6565b5090565b90565b610338806101d46000396000f3fe608060405260043610610062576000357c0100000000000000000000000000000000000000000000000000000000900463ffffffff16806306fdde03146100675780631a8972d3146100f75780635efc071a1461014e5780638da5cb5b146101a5575b600080fd5b34801561007357600080fd5b5061007c6101fc565b6040518080602001828103825283818151815260200191508051906020019080838360005b838110156100bc5780820151818401526020810190506100a1565b50505050905090810190601f1680156100e95780820380516001836020036101000a031916815260200191505b509250505060405180910390f35b34801561010357600080fd5b5061010c61029a565b604051808273ffffffffffffffffffffffffffffffffffffffff1673ffffffffffffffffffffffffffffffffffffffff16815260200191505060405180910390f35b34801561015a57600080fd5b506101636102c0565b604051808273ffffffffffffffffffffffffffffffffffffffff1673ffffffffffffffffffffffffffffffffffffffff16815260200191505060405180910390f35b3480156101b157600080fd5b506101ba6102e6565b604051808273ffffffffffffffffffffffffffffffffffffffff1673ffffffffffffffffffffffffffffffffffffffff16815260200191505060405180910390f35b60008054600181600116156101000203166002900480601f0160208091040260200160405190810160405280929190818152602001828054600181600116156101000203166002900480156102925780601f1061026757610100808354040283529160200191610292565b820191906000526020600020905b81548152906001019060200180831161027557829003601f168201915b505050505081565b600360009054906101000a900473ffffffffffffffffffffffffffffffffffffffff1681565b600260009054906101000a900473ffffffffffffffffffffffffffffffffffffffff1681565b600160009054906101000a900473ffffffffffffffffffffffffffffffffffffffff168156fea165627a7a72305820e4ef3412160d17e0670633611f098cd3823b121ab2aae6b8d7736d997260b3410029",
  "source": "pragma solidity ^0.5.0;\nimport './RWD.sol';\nimport './Tether.sol';\n\ncontract DecentralBank {\n  string public name = 'Decentral Bank';\n  address public owner;\n  Tether public tether;\n  RWD public rwd;\n\n//   address[] public stakers;\n\n//   mapping(address => uint) public stakingBalance;\n//   mapping(address => bool) public hasStaked;\n//   mapping(address => bool) public isStaking;\n\nconstructor(RWD _rwd, Tether _tether) public {\n    rwd = _rwd;\n    tether = _tether;\n//     owner = msg.sender;\n// }\n}}",
  "sourcePath": "/home/dheena/Desktop/Hari/projects/contracts/DecentralBank.sol",
  "compiler": {
    "name": "solc",
    "version": "0.5.0+commit.1d4f565a.Emscripten.clang"
  },
  "schemaVersion": "3.4.4",
  "updatedAt": "2022-01-24T13:07:04.537Z",
  "devdoc": {
    "methods": {}
  },
  "userdoc": {
    "methods": {}
  }
}